:020000040000FA
:10000000B201C7280408A700861006100610831640
:100010008610061006100F30860583122708B218C6
:100020002E283A30A100FC308D203330A60042202B
:100030001030A10068308D20422064308C202230A6
:10004000A600422028302D200C302D2001302D20FC
:1000500006302D20B21427082E283214A600321C98
:100060003C280610033C031C412841200730A10016
:10007000D0308D20031408003214FE3C0319C2282E
:100080000614321C321086140F3086052608F0390B
:1000900086048610A60E3218422832308C200314B3
:1000A0000800B31329080319B3170530A800273037
:1000B000A300103067200330A300E8306720A301BD
:1000C00064306720A3010A30672024086E28A2004C
:1000D0002508A1002408A000A1202008A000A80352
:1000E0000319B313290803197828280203180800F4
:1000F0002008031DB313B31B0800303EBD28A30125
:10010000A200FF30A207031CA307031CC228033070
:10011000A100DF308D208128A101E83EA000A109C7
:10012000FC30031C9628A00703189328A00764003E
:10013000A10F932820189C28A01CA0280000A0280C
:100140000800A501A4011030A600210DA40DA50DE5
:100150002208A4022308031C230FA5020318B728B2
:100160002208A40723080318230FA5070310A00DD6
:10017000A10DA60BA5282008C228840031088A00FA
:10018000300882008313031383126400080083166F
:1001900007309F00850186010130870088018901B1
:1001A0008312881383168813831208138316081387
:1001B00083120812831608128312B8010130A300BB
:1001C000F4308A01802064008A110A120718692914
:1001D000FE308A01032001308A01032020308A0189
:1001E000032059308A01032045308A0103204E3014
:1001F0008A01032069308A01032020308A0103200C
:1002000053308A01032069308A01032053308A0168
:10021000032045308A01032020308A010320413029
:100220008A0103204C308A01032049308A010320CF
:100230004E308A01032049308A01032059308A0157
:1002400003204F308A01032052308A0103202030DE
:100250008A010320FE308A010320C0308A01032076
:1002600001308A01032020308A01032044308A01B2
:1002700003204F308A0103204C308A01032055307F
:100280008A0103204D308A01032020308A01032097
:100290003D308A01032020308A010320A90138085B
:1002A000A400A5010230B000B1018A0151208817D5
:1002B0008316881383128A110A12E9218A110A12FD
:1002C0006C220730A300D0308A0180208A110A12E4
:1002D000E4298813831688138312081383160813DE
:1002E0008312081283160812FE3083128A0103203B
:1002F00001308A01032020308A01032020308A0146
:10030000032020308A01032053308A010320553016
:100310008A01032020308A01032044308A0103200F
:1003200045308A01032050308A0103204F308A0172
:10033000032053308A01032055308A0103202030E6
:100340008A01032042308A0103204F308A010320B2
:1003500053308A01032020308A01032020308A0193
:10036000032020308A01032020308A010320FE3040
:100370008A010320C0308A01032001308A01032052
:1003800020308A01032044308A0103204F308A0143
:1003900003204C308A01032055308A0103204D3060
:1003A0008A01032020308A0103203D308A01032086
:1003B00020308A010320A9013808A400A5010230D9
:1003C000B000B1018A01512064308A017F208A0186
:1003D000E32864008A110A12071D672A881383160E
:1003E0008813FE3083128A01032001308A01032022
:1003F00044308A0103204F308A0103204C308A01A7
:10040000032055308A0103204D308A0103204130FA
:100410008A01032020308A01032048308A0103200A
:1004200041308A0103205A308A01032049308A0171
:10043000032052308A0103204C308A0103204130CE
:100440008A0103204E308A01032049308A010320AB
:1004500059308A0103204F308A01032052308A012B
:10046000032020308A010320FE308A010320C0309F
:100470008A01032001308A01032020308A010320F1
:1004800044308A0103204F308A0103204C308A0116
:10049000032055308A0103204D308A01032020308B
:1004A0008A0103203D308A01032020308A01032085
:1004B000A9013808A400A5010230B000B1018A01E9
:1004C00051200130A300F4308A01802008006430FC
:1004D0008A017F208A01E929081783160813FE3054
:1004E00083128A01032001308A01032020308A010F
:1004F000032020308A01032020308A01032020308D
:100500008A01032053308A01032069308A010320C5
:1005100053308A01032045308A01032020308A01AC
:10052000032044308A0103204F308A0103204C30DD
:100530008A01032055308A01032059308A010320A3
:100540004F308A01032052308A01032020308A0173
:10055000032020308A01032020308A01032020302C
:100560008A010320FE308A010320C0308A01032063
:1005700001308A01032020308A01032044308A019F
:1005800003204F308A0103204C308A01032055306C
:100590008A0103204D308A01032020308A01032084
:1005A0003D308A01032020308A010320A901380848
:1005B000A400A5010230B000B1018A0151206400FD
:1005C0008A110A12871C662B0813831608138312DC
:1005D000B80AFE308A01032001308A01032020304E
:1005E0008A01032020308A01032020308A01032061
:1005F00044308A0103204F308A0103204C308A01A5
:10060000032055308A0103204D308A010320203019
:100610008A01032042308A01032041308A010320ED
:1006200053308A01032041308A01032052308A016D
:10063000032049308A0103204C308A0103204930CD
:100640008A01032020308A01032020308A01032000
:1006500020308A010320FE308A010320C0308A0145
:10066000032001308A01032020308A010320443016
:100670008A0103204F308A0103204C308A01032075
:1006800055308A0103204D308A01032020308A0131
:1006900003203D308A01032020308A010320A90174
:1006A0003808A400A5010230B000B1018A01512030
:1006B00008168316081283120330A300E8308A015B
:1006C00080200812831608128312080064308A0101
:0606D0007F208A016C2A64
:02400E007D3FF4
:00000001FF
